{
  "contractName": "KycContract",
  "abi": [
    {
      "inputs": [],
      "stateMutability": "nonpayable",
      "type": "constructor"
    },
    {
      "inputs": [
        {
          "internalType": "address",
          "name": "owner",
          "type": "address"
        }
      ],
      "name": "OwnableInvalidOwner",
      "type": "error"
    },
    {
      "inputs": [
        {
          "internalType": "address",
          "name": "account",
          "type": "address"
        }
      ],
      "name": "OwnableUnauthorizedAccount",
      "type": "error"
    },
    {
      "anonymous": false,
      "inputs": [
        {
          "indexed": true,
          "internalType": "address",
          "name": "user",
          "type": "address"
        }
      ],
      "name": "KycCompleted",
      "type": "event"
    },
    {
      "anonymous": false,
      "inputs": [
        {
          "indexed": true,
          "internalType": "address",
          "name": "user",
          "type": "address"
        }
      ],
      "name": "KycRevoked",
      "type": "event"
    },
    {
      "anonymous": false,
      "inputs": [
        {
          "indexed": true,
          "internalType": "address",
          "name": "previousOwner",
          "type": "address"
        },
        {
          "indexed": true,
          "internalType": "address",
          "name": "newOwner",
          "type": "address"
        }
      ],
      "name": "OwnershipTransferred",
      "type": "event"
    },
    {
      "inputs": [],
      "name": "owner",
      "outputs": [
        {
          "internalType": "address",
          "name": "",
          "type": "address"
        }
      ],
      "stateMutability": "view",
      "type": "function",
      "constant": true
    },
    {
      "inputs": [],
      "name": "renounceOwnership",
      "outputs": [],
      "stateMutability": "nonpayable",
      "type": "function"
    },
    {
      "inputs": [
        {
          "internalType": "address",
          "name": "newOwner",
          "type": "address"
        }
      ],
      "name": "transferOwnership",
      "outputs": [],
      "stateMutability": "nonpayable",
      "type": "function"
    },
    {
      "inputs": [
        {
          "internalType": "address",
          "name": "_addr",
          "type": "address"
        }
      ],
      "name": "setKycCompleted",
      "outputs": [],
      "stateMutability": "nonpayable",
      "type": "function"
    },
    {
      "inputs": [
        {
          "internalType": "address",
          "name": "_addr",
          "type": "address"
        }
      ],
      "name": "setKycRevoked",
      "outputs": [],
      "stateMutability": "nonpayable",
      "type": "function"
    },
    {
      "inputs": [
        {
          "internalType": "address",
          "name": "_addr",
          "type": "address"
        }
      ],
      "name": "kycCompleted",
      "outputs": [
        {
          "internalType": "bool",
          "name": "",
          "type": "bool"
        }
      ],
      "stateMutability": "view",
      "type": "function",
      "constant": true
    }
  ],
  "bytecode": "0x608060405234801561001057600080fd5b50338061003757604051631e4fbdf760e01b81526000600482015260240160405180910390fd5b61004081610046565b50610096565b600080546001600160a01b038381166001600160a01b0319831681178455604051919092169283917f8be0079c531659141344cd1fd0a4f28419497f9722a3daafe3b4186f6b6457e09190a35050565b610380806100a56000396000f3fe608060405234801561001057600080fd5b50600436106100625760003560e01c806370c9aedd14610067578063715018a61461007c5780638da5cb5b14610084578063dc3958cc146100a4578063df235fe4146100b7578063f2fde38b146100f3575b600080fd5b61007a6100753660046102d2565b610106565b005b61007a61018c565b6000546040516001600160a01b0390911681526020015b60405180910390f35b61007a6100b23660046102d2565b6101a0565b6100e36100c53660046102d2565b6001600160a01b031660009081526001602052604090205460ff1690565b604051901515815260200161009b565b61007a6101013660046102d2565b610217565b61010e610255565b6001600160a01b03811661013d5760405162461bcd60e51b815260040161013490610302565b60405180910390fd5b6001600160a01b0381166000818152600160208190526040808320805460ff1916909217909155517f2eb10fde5a2e513a68d529bab7a4bbff4df4243112959318e3bca64c0ea0e7989190a250565b610194610255565b61019e6000610282565b565b6101a8610255565b6001600160a01b0381166101ce5760405162461bcd60e51b815260040161013490610302565b6001600160a01b038116600081815260016020526040808220805460ff19169055517ff1c17763556df78bc208351a44a3321884a234d46c5f9a055d0bf24740f5745c9190a250565b61021f610255565b6001600160a01b03811661024957604051631e4fbdf760e01b815260006004820152602401610134565b61025281610282565b50565b6000546001600160a01b0316331461019e5760405163118cdaa760e01b8152336004820152602401610134565b600080546001600160a01b038381166001600160a01b0319831681178455604051919092169283917f8be0079c531659141344cd1fd0a4f28419497f9722a3daafe3b4186f6b6457e09190a35050565b6000602082840312156102e457600080fd5b81356001600160a01b03811681146102fb57600080fd5b9392505050565b60208082526028908201527f4b7963436f6e74726163743a206164647265737320697320746865207a65726f604082015267206164647265737360c01b60608201526080019056fea2646970667358221220d0cdf2640b82d476dea82f6973f67bef6489a153b928f7aea65e21d4bb31516a64736f6c63430008140033",
  "immutableReferences": {},
  "source": "// SPDX-License-Identifier: MIT\r\npragma solidity ^0.8.0;\r\n\r\nimport \"@openzeppelin/contracts/access/Ownable.sol\";\r\n\r\ncontract KycContract is Ownable {\r\n    mapping(address => bool) private allowed;\r\n    \r\n    event KycCompleted(address indexed user);\r\n    event KycRevoked(address indexed user);\r\n\r\n    constructor() Ownable(msg.sender) {}\r\n\r\n    function setKycCompleted(address _addr) public onlyOwner {\r\n        require(_addr != address(0), \"KycContract: address is the zero address\");\r\n        allowed[_addr] = true;\r\n        emit KycCompleted(_addr);\r\n    }\r\n\r\n    function setKycRevoked(address _addr) public onlyOwner {\r\n        require(_addr != address(0), \"KycContract: address is the zero address\");\r\n        allowed[_addr] = false;\r\n        emit KycRevoked(_addr);\r\n    }\r\n\r\n    function kycCompleted(address _addr) public view returns(bool) {\r\n        return allowed[_addr];\r\n    }\r\n}",
  "sourcePath": "A:\\AI-ML\\Ethereum-market\\truffle\\contracts\\KycContract.sol",
  "compiler": {
    "name": "solc",
    "version": "0.8.20+commit.a1b79de6.Emscripten.clang"
  },
  "schemaVersion": "3.4.16",
  "updatedAt": "2025-07-01T13:08:08.810Z",
  "networkType": "ethereum",
  "devdoc": {
    "errors": {
      "OwnableInvalidOwner(address)": [
        {
          "details": "The owner is not a valid owner account. (eg. `address(0)`)"
        }
      ],
      "OwnableUnauthorizedAccount(address)": [
        {
          "details": "The caller account is not authorized to perform an operation."
        }
      ]
    },
    "kind": "dev",
    "methods": {
      "owner()": {
        "details": "Returns the address of the current owner."
      },
      "renounceOwnership()": {
        "details": "Leaves the contract without owner. It will not be possible to call `onlyOwner` functions. Can only be called by the current owner. NOTE: Renouncing ownership will leave the contract without an owner, thereby disabling any functionality that is only available to the owner."
      },
      "transferOwnership(address)": {
        "details": "Transfers ownership of the contract to a new account (`newOwner`). Can only be called by the current owner."
      }
    },
    "version": 1
  },
  "userdoc": {
    "kind": "user",
    "methods": {},
    "version": 1
  }
}