{
  "contractName": "MyTokenSale",
  "abi": [
    {
      "inputs": [
        {
          "internalType": "uint256",
          "name": "rate",
          "type": "uint256"
        },
        {
          "internalType": "address payable",
          "name": "wallet",
          "type": "address"
        },
        {
          "internalType": "contract IERC20",
          "name": "token",
          "type": "address"
        },
        {
          "internalType": "contract KycContract",
          "name": "_kyc",
          "type": "address"
        }
      ],
      "stateMutability": "nonpayable",
      "type": "constructor"
    },
    {
      "inputs": [
        {
          "internalType": "address",
          "name": "token",
          "type": "address"
        }
      ],
      "name": "SafeERC20FailedOperation",
      "type": "error"
    },
    {
      "anonymous": false,
      "inputs": [
        {
          "indexed": true,
          "internalType": "address",
          "name": "oldKyc",
          "type": "address"
        },
        {
          "indexed": true,
          "internalType": "address",
          "name": "newKyc",
          "type": "address"
        }
      ],
      "name": "KycContractUpdated",
      "type": "event"
    },
    {
      "anonymous": false,
      "inputs": [
        {
          "indexed": true,
          "internalType": "address",
          "name": "purchaser",
          "type": "address"
        },
        {
          "indexed": true,
          "internalType": "address",
          "name": "beneficiary",
          "type": "address"
        },
        {
          "indexed": false,
          "internalType": "uint256",
          "name": "value",
          "type": "uint256"
        },
        {
          "indexed": false,
          "internalType": "uint256",
          "name": "amount",
          "type": "uint256"
        }
      ],
      "name": "TokensPurchased",
      "type": "event"
    },
    {
      "inputs": [
        {
          "internalType": "address",
          "name": "beneficiary",
          "type": "address"
        }
      ],
      "name": "buyTokens",
      "outputs": [],
      "stateMutability": "payable",
      "type": "function",
      "payable": true
    },
    {
      "inputs": [],
      "name": "kyc",
      "outputs": [
        {
          "internalType": "contract KycContract",
          "name": "",
          "type": "address"
        }
      ],
      "stateMutability": "view",
      "type": "function",
      "constant": true
    },
    {
      "inputs": [],
      "name": "rate",
      "outputs": [
        {
          "internalType": "uint256",
          "name": "",
          "type": "uint256"
        }
      ],
      "stateMutability": "view",
      "type": "function",
      "constant": true
    },
    {
      "inputs": [],
      "name": "token",
      "outputs": [
        {
          "internalType": "contract IERC20",
          "name": "",
          "type": "address"
        }
      ],
      "stateMutability": "view",
      "type": "function",
      "constant": true
    },
    {
      "inputs": [],
      "name": "wallet",
      "outputs": [
        {
          "internalType": "address payable",
          "name": "",
          "type": "address"
        }
      ],
      "stateMutability": "view",
      "type": "function",
      "constant": true
    },
    {
      "inputs": [],
      "name": "weiRaised",
      "outputs": [
        {
          "internalType": "uint256",
          "name": "",
          "type": "uint256"
        }
      ],
      "stateMutability": "view",
      "type": "function",
      "constant": true
    },
    {
      "stateMutability": "payable",
      "type": "receive",
      "payable": true
    },
    {
      "inputs": [
        {
          "internalType": "contract KycContract",
          "name": "_kyc",
          "type": "address"
        }
      ],
      "name": "updateKycContract",
      "outputs": [],
      "stateMutability": "nonpayable",
      "type": "function"
    },
    {
      "inputs": [],
      "name": "getKycContract",
      "outputs": [
        {
          "internalType": "address",
          "name": "",
          "type": "address"
        }
      ],
      "stateMutability": "view",
      "type": "function",
      "constant": true
    }
  ],
  "bytecode": "0x608060405234801561001057600080fd5b5060405161099d38038061099d83398101604081905261002f91610238565b838383600083116100875760405162461bcd60e51b815260206004820152601460248201527f43726f776473616c653a2072617465206973203000000000000000000000000060448201526064015b60405180910390fd5b6001600160a01b0382166100eb5760405162461bcd60e51b815260206004820152602560248201527f43726f776473616c653a2077616c6c657420697320746865207a65726f206164604482015264647265737360d81b606482015260840161007e565b6001600160a01b03811661014d5760405162461bcd60e51b8152602060048201526024808201527f43726f776473616c653a20746f6b656e20697320746865207a65726f206164646044820152637265737360e01b606482015260840161007e565b600292909255600180546001600160a01b03199081166001600160a01b039384161790915560008054909116928216929092179091556004805460ff1916905581166101f15760405162461bcd60e51b815260206004820152602d60248201527f4d79546f6b656e53616c653a204b594320636f6e74726163742069732074686560448201526c207a65726f206164647265737360981b606482015260840161007e565b600480546001600160a01b0390921661010002610100600160a81b03199092169190911790555061028d915050565b6001600160a01b038116811461023557600080fd5b50565b6000806000806080858703121561024e57600080fd5b84519350602085015161026081610220565b604086015190935061027181610220565b606086015190925061028281610220565b939692955090935050565b6107018061029c6000396000f3fe60806040526004361061007f5760003560e01c806358edac181161004e57806358edac181461012457806390d6b45f14610147578063ec8ac4d81461016c578063fc0c546a1461017a57600080fd5b80632c4e722e146100995780634042b66f146100bd578063466e9c0d146100d2578063521eb273146100f257600080fd5b366100945761009233610198565b610198565b005b600080fd5b3480156100a557600080fd5b506002545b6040519081526020015b60405180910390f35b3480156100c957600080fd5b506003546100aa565b3480156100de57600080fd5b506100926100ed366004610645565b61028d565b3480156100fe57600080fd5b506001546001600160a01b03165b6040516001600160a01b0390911681526020016100b4565b34801561013057600080fd5b5060045461010090046001600160a01b031661010c565b34801561015357600080fd5b5060045461010c9061010090046001600160a01b031681565b61009261008d366004610645565b34801561018657600080fd5b506000546001600160a01b031661010c565b60045460ff16156101f05760405162461bcd60e51b815260206004820152601960248201527f43726f776473616c653a207265656e7472616e742063616c6c0000000000000060448201526064015b60405180910390fd5b6004805460ff19166001179055346102088282610353565b60006102138261043c565b905081600354610223919061067f565b6003556102308382610452565b60408051838152602081018390526001600160a01b0385169133917f6faf93231a456e552dbc9961f58d9713ee4f2e69d15f1975b050ef0911053a7b910160405180910390a361027e61045c565b50506004805460ff1916905550565b6001600160a01b0381166102f95760405162461bcd60e51b815260206004820152602d60248201527f4d79546f6b656e53616c653a204b594320636f6e74726163742069732074686560448201526c207a65726f206164647265737360981b60648201526084016101e7565b600480546001600160a01b03838116610100818102610100600160a81b031985161790945560405193909204169182907f778783884a57891e576849699755ca80b5ca72b996d1967fada8ec9acbe982b690600090a35050565b61035d8282610498565b600480546040516337c8d7f960e21b8152339281019290925261010090046001600160a01b03169063df235fe490602401602060405180830381865afa1580156103ab573d6000803e3d6000fd5b505050506040513d601f19601f820116820180604052508101906103cf9190610692565b6104385760405162461bcd60e51b815260206004820152603460248201527f4d79546f6b656e53616c653a204b5943206e6f7420636f6d706c657465642c206044820152731c1d5c98da185cd9481b9bdd08185b1b1bddd95960621b60648201526084016101e7565b5050565b60006002548261044c91906106b4565b92915050565b6104388282610551565b6001546040516001600160a01b03909116903480156108fc02916000818181858888f19350505050158015610495573d6000803e3d6000fd5b50565b6001600160a01b0382166105015760405162461bcd60e51b815260206004820152602a60248201527f43726f776473616c653a2062656e656669636961727920697320746865207a65604482015269726f206164647265737360b01b60648201526084016101e7565b806000036104385760405162461bcd60e51b815260206004820152601960248201527f43726f776473616c653a20776569416d6f756e7420697320300000000000000060448201526064016101e7565b600054604080516001600160a01b03858116602483015260448083018690528351808403909101815260649092019092526020810180516001600160e01b031663a9059cbb60e01b179052610438929190911690849084906105b49084906105b9565b505050565b600080602060008451602086016000885af1806105dc576040513d6000823e3d81fd5b50506000513d915081156105f4578060011415610601565b6001600160a01b0384163b155b1561062a57604051635274afe760e01b81526001600160a01b03851660048201526024016101e7565b50505050565b6001600160a01b038116811461049557600080fd5b60006020828403121561065757600080fd5b813561066281610630565b9392505050565b634e487b7160e01b600052601160045260246000fd5b8082018082111561044c5761044c610669565b6000602082840312156106a457600080fd5b8151801515811461066257600080fd5b808202811582820484141761044c5761044c61066956fea2646970667358221220d942cb1df39ecc0a5456aa551089e79ad28a15a7f8142c955ebb150d725d4d2564736f6c63430008140033",
  "immutableReferences": {},
  "source": "// SPDX-License-Identifier: MIT\r\npragma solidity ^0.8.0;\r\n\r\nimport \"./Crowdsale.sol\";\r\nimport \"./KycContract.sol\";\r\n\r\ncontract MyTokenSale is Crowdsale {\r\n\r\n    KycContract public kyc;\r\n\r\n    event KycContractUpdated(address indexed oldKyc, address indexed newKyc);\r\n\r\n    constructor(\r\n        uint256 rate,    // rate in TKNbits\r\n        address payable wallet,\r\n        IERC20 token,\r\n        KycContract _kyc\r\n    )\r\n        Crowdsale(rate, wallet, token)\r\n    {\r\n        require(address(_kyc) != address(0), \"MyTokenSale: KYC contract is the zero address\");\r\n        kyc = _kyc;\r\n    }\r\n\r\n    function _preValidatePurchase(address beneficiary, uint256 weiAmount) internal view override {\r\n        super._preValidatePurchase(beneficiary, weiAmount);\r\n        require(kyc.kycCompleted(msg.sender), \"MyTokenSale: KYC not completed, purchase not allowed\");\r\n    }\r\n\r\n    /**\r\n     * @dev Allows owner to update the KYC contract address\r\n     * @param _kyc New KYC contract address\r\n     */\r\n    function updateKycContract(KycContract _kyc) external {\r\n        // Note: Add access control here if needed (e.g., onlyOwner modifier)\r\n        require(address(_kyc) != address(0), \"MyTokenSale: KYC contract is the zero address\");\r\n        \r\n        address oldKyc = address(kyc);\r\n        kyc = _kyc;\r\n        \r\n        emit KycContractUpdated(oldKyc, address(_kyc));\r\n    }\r\n\r\n    /**\r\n     * @dev Returns the current KYC contract address\r\n     */\r\n    function getKycContract() external view returns (address) {\r\n        return address(kyc);\r\n    }\r\n}",
  "sourcePath": "A:\\AI-ML\\Ethereum-market\\truffle\\contracts\\MyTokenSale.sol",
  "compiler": {
    "name": "solc",
    "version": "0.8.20+commit.a1b79de6.Emscripten.clang"
  },
  "schemaVersion": "3.4.16",
  "updatedAt": "2025-07-01T13:08:08.807Z",
  "networkType": "ethereum",
  "devdoc": {
    "errors": {
      "SafeERC20FailedOperation(address)": [
        {
          "details": "An operation with an ERC-20 token failed."
        }
      ]
    },
    "kind": "dev",
    "methods": {
      "getKycContract()": {
        "details": "Returns the current KYC contract address"
      },
      "updateKycContract(address)": {
        "details": "Allows owner to update the KYC contract address",
        "params": {
          "_kyc": "New KYC contract address"
        }
      }
    },
    "version": 1
  },
  "userdoc": {
    "kind": "user",
    "methods": {},
    "version": 1
  }
}